:10000000FDED00F0F6EC00F003EC01F009EC00F07F
:100010000000CEA722EF00F0CA92C292CA92C2920A
:10002000C890C090C892C092C894C094C896C09618
:10003000C898C098C89AC09AC89CC09CC89EC09EC8
:1000400009EF00F0CA92C282CA92C290C890C090D2
:10005000C892C082C894C094C896C096C898C098E8
:10006000C89AC09AC89CC09CC89EC09ECEA709EFE3
:1000700000F0F4EDFFF0F4EDFFF0C890C090C892EE
:10008000C092C894C094C896C086C898C098C89AB0
:10009000C09AC89CC09CC89EC09ECEA709EF00F025
:1000A000F4EDFFF0F4EDFFF0C890C090C892C0925C
:1000B000C894C094C896C086C898C098C89AC09A78
:1000C000CEA709EF00F0C89CC09CC89EC09ECEA7DA
:1000D00009EF00F0F4EDFFF0F4EDFFF0C890C090F0
:1000E000C892C092C894C094C896C096C898C09848
:1000F000C89AC08AC89CC09CC89EC09ECEA709EF63
:1001000000F0F4EDFFF0F4EDFFF0C890C090C8925D
:10011000C092C894C094C896C096C898C098C89A0F
:10012000C09AC89CC09CC89EC08ECEA709EF00F0A4
:10013000F4EDFFF0F4EDFFF0CA90C280CA92C292D3
:10014000C890C080C892C092C894C094C896C09607
:10015000C898C098C89AC09AC89CC09CC89EC09EA7
:10016000CEA709EF00F0F4EDFFF0C890C090C89260
:10017000C092C894C084C896C096C898C098C89ABF
:10018000C09AC89CC09CC89EC09ECEA709EF00F034
:10019000F4EDFFF0C890C090C892C092C894C0948B
:1001A000C896C096C898C088C89AC09AC89CC09C77
:1001B000C89EC09ECEA709EF00F0F4EDFFF0C890F6
:1001C000C090C892C092C894C094C896C096C8986F
:1001D000C098C89AC09AC89CC08CC89EC09ECEA722
:1001E00009EF00F0F4EDFFF022EF00F00401CE6B18
:1001F000006BC687BE87018712000001600EAD6FDD
:0E020000020EB16F12000401D06A106A1200E3
:020000040001F9
:10FF0A0000EF00F0010E006E0000002E89EFFFF0F6
:10FF1A001200050E006E0000002E89EFFFF012009D
:10FF2A000B0E006E0000002E89EFFFF01200180E73
:10FF3A00006E0000002E89EFFFF012003D0E006EE9
:10FF4A000000002E89EFFFF012007C0E006E000008
:10FF5A00002E89EFFFF01200F90E006E0000002E4D
:10FF6A0089EFFFF01200050E016EF90E006E000017
:10FF7A00002EBCEFFFF0012EBAEFFFF012000A0EBE
:10FF8A00016EF90E006E0000002EBCEFFFF0012E8C
:10FF9A00BAEFFFF01200190E016EF90E006E0000A2
:10FFAA00002EBCEFFFF0012EBAEFFFF01200320E66
:10FFBA00016EF90E006E0000002EBCEFFFF0012E5C
:10FFCA00BAEFFFF01200640E016EF90E006E000027
:10FFDA00002EBCEFFFF0012EBAEFFFF01200F90E6F
:10FFEA00016EF90E006E0000002EBCEFFFF0012E2C
:06FFFA00BAEFFFF0120057
:020000040030CA
:10000000EC0D27C79FFFFFFFFFFFFFFFFFFFFFFF75
:10001000FFFFFFFFFFFFFFFFFFFFFFFFFFFFFFFFF0
:03002000FFFFFFE0
:00000001FF
